:020000022000DC
:10700000000004200171020043CA020005050300CC
:1070100043CA020043CA020043CA02000000000043
:1070200000000000000000000000000043CA020051
:1070300043CA02000000000043CA020043CA020023
:1070400043CA020043CA020043CA020043CA020004
:1070500043CA020043CA020057A8020043CA020002
:1070600043CA020043CA020043CA020043CA0200E4
:1070700043CA020043CA020043CA020043CA0200D4
:1070800043CA020027CA020043CA020043CA0200E0
:1070900043CA020043CA020043CA020043CA0200B4
:1070A00043CA020043CA020043CA020043CA0200A4
:1070B00043CA020043CA02000000000000000000B2
:1070C00043CA020043CA020043CA020043CA020084
:1070D00043CA020043CA020043CA020043CA020074
:1070E00043CA020043CA020043CA02000000000073
:1070F0000000000043CA02000000000043CA020072
:1071000005F0A3FC0E480F490022814201D004C0C3
:10711000FBE70D480D490E4A814202D008CA08C05B
:10712000FAE70C484FF47001026842EA010202607B
:10713000BFF34F8FBFF36F8F00F043F800DE000006
:10714000507C00205C7E0020007C0020507C0020D1
:10715000382D030088ED00E080B56F4684B01946F5
:1071600000920246009801920391029005F06EFD94
:10717000024601980B4605F057FE04B080BD80B56D
:107180006F4682B0019100F002F802B080BD80B578
:107190006F4682B00091014600980190086000207F
:1071A000487102B080BD80B56F4684B001900390F5
:1071B00000F04FFB01990291029900F0C1F904B06F
:1071C00080BD80B56F4600F000F880B56F4684B092
:1071D00001A8009007F049FA009800F067FB0390BF
:1071E00000F092FE80B56F4683B00090019002904F
:1071F00003B080BD80B56F4682B00190FFF7F2FF0B
:1072000000F05CFA02B080BD80B56F468CB0019191
:107210000A900B91FFF7E6FF0199029004A80390F2
:1072200000F03CFB0298039941F28002C0F2030295
:1072300000F060FE0CB080BD80B56F4682B001905A
:10724000FFF7D0FF02B080BD80B56F4683B00090DD
:1072500001910290016003B080BD80B56F468EB091
:107260000191014601980291049001218DF80C10C2
:107270009DF80C30059007F81D3C026822F00102D1
:107280008DF834301A43026007F82B1C17F82B2CAA
:10729000099007F80D2C016821F0020107F8022C73
:1072A00041EA420101600021009107F82A1C17F809
:1072B0002A2C079007F8152C016821F00C0107F81B
:1072C000032C02F0030241EA82010160029909786D
:1072D00005F080F90098019907F8290C17F8292C76
:1072E0000B9107F8052C086820F4403007F8012CB2
:1072F00002F0030240EA024008600EB080BD80B593
:107300006F4682B000F0C3F902B080BD80B56F4611
:1073100084B002900A46019207F8020C07F8011C9B
:10732000FFF7EDFF014602988DF80C1020B1FFE742
:1073300003A800F047FE03E003A800F039FEFFE7D2
:10734000019903A800F00FFE9DF80C0004B080BD69
:1073500080B56F4683B000900290019003B080BD6D
:1073600080B56F4681B000900068B0FA80F04009A7
:1073700001B080BD80B56F4681B007F8010C01B047
:1073800080BD80B56F468AB0009101900390049152
:107390000591069007910890FFE7019800990990E0
:1073A00000EB81100290FFE7019802990AB080BDBE
:1073B00080B56F468EB0009006900121079108912C
:1073C00001680391406801900990FFE7019803A9C3
:1073D0000A91049004A80B9003980499884207D05E
:1073E000FFE7009903980C9003984030086002E092
:1073F0000020029009E00398059005A80D900398DD
:107400000290FFE702980EB080BDFBE780B56F46A3
:1074100088B000900590FFE70098FFF7C9FF039040
:10742000039850B1FFE703990691A7F1190000F006
:107430003BF90490049818B906E00020029004E09B
:1074400004980790029000E0E6E7029808B080BD3B
:1074500080B56F4694B003900D9007F047FA01464F
:10746000029113900E902830FFF7E6FE0146039834
:10747000049112910F9107F0DFF90690079108A887
:10748000059006A900F025FA0498059900F044F942
:1074900030B1FFE70698079900F025FD14B080BDD4
:1074A00002982830FFF7A6FE029824304EF6FB0122
:1074B000C0F202010C910C99FFF7C6FE0298183039
:1074C00001901190012007F80E0C17F80E0C00F037
:1074D0004DFC0198002107F80D1C17F80D2C00F049
:1074E00037FCD7E780B56F468AB0019107900891C5
:1074F000002107F80D1C012107F80D1C00F08FF882
:107500000490059104A8FFF781FF0390039850B100
:10751000FFE7019903980990002207F80D2C00F06D
:1075200018F8029003E000F068FC0290FFE717F8FB
:107530000D0CC00718B9FFE702980AB080BDFBE741
:1075400080B56F4682B000900191FFF7CBFF02B08B
:1075500080BD80B56F4686B001910290049102987B
:10756000243047F25141C0F2020103910399FFF721
:107570006BFE019902982830FFF746FE029800F052
:1075800044F8059000F041FC06B080BD80B56F4620
:107590008AB003900398183001900890012007F8F2
:1075A000150C17F8150C00F0E1FB019807F009F92C
:1075B000002107F80B1C07F80A1C17F80B3C17F8FA
:1075C0000A2CEC46CCF8002040F2011200F001FC3D
:1075D0000590069105A8FFF7C3FE029007F8010C7D
:1075E000022007F8090C17F8090C00F0BFFB0298FD
:1075F00003A900F0A4FC0AB080BD80B56F4681B03D
:1076000000900098006801B080BD80B56F4682B0E0
:10761000019000F08EFC00F086FC02B080BD80B5C9
:107620006F4682B000900191FFF7ABFE02B080BDC3
:1076300080B56F4682B005F0D5F902B080BD80B547
:107640006F4682B007F8010CFFF794FE02B080BDD0
:1076500080B56F4684B00190039000F023FC27F8BA
:10766000060CB81F07F08FFC019800F024FC04B052
:1076700080BD80B56F4684B00146B8680193009222
:107680008DF808004B600A60087204B080BD80B5B8
:107690006F4682B041F29000C0F20300FFF7C8FFCE
:1076A00002F025FB02B080BD80B56F4682B000912C
:1076B00001900098FFF76AFF02B080BD80B56F4669
:1076C00084B00090029040790146019150B1FFE7EB
:1076D0000198032808D0FFE70198042805D0FFE7A8
:1076E00004B080BD04B080BD00E0FFE70098043026
:1076F00000F00AF804B080BD80B56F4682B00190FA
:1077000004F0E2FF02B080BD80B56F4682B0019008
:10771000FFF7F2FF02B080BD80B56F46A0B00391C5
:1077200005900B91059840790146049130B1FFE72F
:10773000049803281ED0FFE71FE0FEDE03980A909E
:10774000059800680D9007A8019003F02FFB0198A1
:1077500003F060FD00208DF8240007F85B0C05980D
:1077600002909DF8240017F85B1CFFF7CFFD0299EB
:10777000087105E003980A901EE003980A9023E040
:107780000598043000F030FC0EA841F28832002346
:10779000FFF7E2FC0E9A0F9B9DF8400069460860D7
:1077A00012A8FFF766FF129A139B9DF850000599E7
:1077B000CB608A600874FFE7059808301E900A992C
:1077C00005F048FBF8B928E0059808301F900A99A1
:1077D00005F040FB50B1FFE7012007F8650C059963
:1077E0000420487117F8650C20B080BD40F20200FB
:1077F000C0F2000007F0BDFB27F85A0CA7F15A00B1
:1078000007F0E7FBBCE7012007F8650C05990320AA
:10781000487117F8650C20B080BD0598043000F061
:10782000DBFB16A841F288320023FFF795FC169A7D
:10783000179B9DF86000694608601AA8FFF719FFBA
:107840001A9A1B9B9DF870000599CB608A6008749A
:10785000BAE780B56F4684B047F65040C2F20000E8
:10786000FFF776FD01460091039001460191400724
:1078700018B9FFE7009840B90AE0019941F2A00267
:10788000C0F20302082007F0B5FC009804B080BDE8
:1078900041F2A000C0F2030007F0CCFC80B56F46B7
:1078A00082B00191FFF76BFC02B080BD80B56F46DE
:1078B00081B0009001B080BD80B56F4682B000906D
:1078C0000098FFF770FC0146684600F0A6FA02B087
:1078D00080BD80B56F4682B000910146009801904E
:1078E0000860486041F2C000C0F2030002684068CE
:1078F0008A60C86002B080BD80B56F46A4B00792B0
:1079000008918446CDF824C0B8680A90CDF870C0BC
:107910001D911E9207F8123C07F8110C41F2041059
:10792000C0F20300209041F24C10C0F203002190FD
:10793000D8B20B900B99DFE801F00413253749000A
:10794000FEDE0A98C0B201460691002856D0FFE735
:107950000698022866D0FFE70698042878D047E00A
:107960000A98C0B201460591002800F09580FFE713
:107970000598022800F0A680FFE70598042800F08B
:10798000B98035E00A98C0B201460491002800F0A1
:10799000C980FFE70498022800F0DA80FFE7049826
:1079A000042800F0EB8023E00A98C0B2014603915E
:1079B000002800F0FB80FFE70398022800F00E810A
:1079C000FFE70398042800F0218111E00A98C0B273
:1079D00001460291002800F03181FFE70298022859
:1079E00000F04481FFE70298042800F05781FFE788
:1079F0000A98C0B2012800F077818FE10898099BAE
:107A0000DDF81CC053E8001F014503D143E800C264
:107A1000002AF7D1081AB0FA80F040090E918DF8CB
:107A20003C002DE00898099BDDF81CC053E8001FBE
:107A3000014503D143E800C2002AF7D1081AB0FA81
:107A400080F04009BFF35F8F0E918DF83C0017E086
:107A50000898099BDDF81CC0BFF35F8F53E8001F37
:107A6000014503D143E800C2002AF7D1081AB0FA51
:107A700080F04009BFF35F8F0E918DF83C00FFE767
:107A80000E98019022909DF83C0007F8010CC00769
:107A9000002840F0208119E10898099BDDF81CC0FE
:107AA000BFF35F8F53E8001F014503D143E800C2D5
:107AB000002AF7D1081AB0FA80F040090E918DF82B
:107AC0003C00DDE70898099BDDF81CC0BFF35F8F21
:107AD00053E8001F014503D143E800C2002AF7D153
:107AE000081AB0FA80F04009BFF35F8F0E918DF84D
:107AF0003C00C5E70898099BDDF81CC0BFF35F8F09
:107B000053E8001F014503D143E800C2002AF7D122
:107B1000081AB0FA80F04009BFF35F8F0E918DF81C
:107B20003C00ADE70898099BDDF81CC053E8001F36
:107B3000014503D143E800C2002AF7D1081AB0FA80
:107B400080F04009BFF35F8F0E918DF83C0097E7FE
:107B50000898099BDDF81CC053E8001F014503D1BC
:107B600043E800C2002AF7D1081AB0FA80F04009B1
:107B7000BFF35F8F0E918DF83C0081E70898099B59
:107B8000DDF81CC0BFF35F8F53E8001F014503D130
:107B900043E800C2002AF7D1081AB0FA80F0400981
:107BA000BFF35F8F0E918DF83C0069E70898099B41
:107BB000DDF81CC0BFF35F8F53E8001F014503D100
:107BC00043E800C2002AF7D1081AB0FA80F0400951
:107BD000BFF35F8F0E918DF83C0051E70898099B29
:107BE000DDF81CC0BFF35F8F53E8001F014503D1D0
:107BF00043E800C2002AF7D1081AB0FA80F0400921
:107C0000BFF35F8F0E918DF83C0039E70898099B10
:107C1000DDF81CC0BFF35F8F53E8001F014503D19F
:107C200043E800C2002AF7D1081AB0FA80F04009F0
:107C3000BFF35F8F0E918DF83C0021E70898099BF8
:107C4000DDF81CC0BFF35F8F53E8001F014503D16F
:107C500043E800C2002AF7D1081AB0FA80F04009C0
:107C6000BFF35F8F0E918DF83C0009E70898099BE0
:107C7000DDF81CC0BFF35F8F53E8001F014503D13F
:107C800043E800C2002AF7D1081AB0FA80F0400990
:107C9000BFF35F8F0E918DF83C00F1E60898099BC9
:107CA000DDF81CC0BFF35F8F53E8001F014503D10F
:107CB00043E800C2002AF7D1081AB0FA80F0400960
:107CC000BFF35F8F0E918DF83C00D9E601980D90BF
:107CD00001200C9004E001980D9000200C90FFE72B
:107CE0000C980D9924B080BD41F20410C0F203003D
:107CF00016900120179041F2C000C0F20300016805
:107D000040681A911B90042018900020199041F2AD
:107D10005411C0F2030116A807F0E8F941F24C1023
:107D2000C0F2030010900120119041F2C000C0F297
:107D300003000168406814911590042012900020FF
:107D4000139041F26411C0F2030110A807F0CEF9BC
:107D500080B56F4684B0019007F8061C07F8052C23
:107D6000039005F0D5FF04B080BDD4D480B56F4634
:107D70008AB007F8050C41F2A011C0F20301099185
:107D8000C0B201900199DFE801F0041E1F2021001C
:107D9000FEDE41F2A010C0F2030002900120039029
:107DA00041F2C000C0F203000168406806910790EC
:107DB000042004900020059041F2A811C0F20301B4
:107DC00002A807F093F902E001E000E0FFE70AB043
:107DD00080BD80B56F4686B0D7F808C0019002918B
:107DE000039207F8063C07F805CC0590EE46CEF85E
:107DF00000C0FFF781FD06B080BD80B56F4681B041
:107E000000200090009801B080BD80B56F4682B020
:107E100001900090009802B080BD80B56F4686B09A
:107E20000290039100F01DF8FFF709FCB8B1FFE7DD
:107E3000A7F113000090059040F20800C0F2000086
:107E400007F097F827F8120CA7F1120007F0B1F825
:107E50000098FFF7FDFB01F044FA07F0D1F806B0F7
:107E600080BD80B56F4688B00191014601980291AE
:107E700005910690049000F030F8049850B1FFE7A7
:107E8000029804990791006806F0CFFD002007F8DA
:107E9000110C03E0012007F8110CFFE717F8110C93
:107EA00008B080BD80B56F4640F20100C0F200000E
:107EB00007F05FF880BD80B56F4682B000900190FA
:107EC00007F05EF8009806F03CFE41F2B810C0F2F0
:107ED000030007F09DF802B080BD80B56F4681B009
:107EE000009001B080BD80B56F4682B000900191D6
:107EF00002B080BDB0B502AF81B0009091E83C50B7
:107F000080E83C5001B0B0BD80B56F4684B00190B0
:107F1000029006F09BFDFFF7CFFCFFE7019806F00B
:107F20008DFD20BFFAE780B56F4681B0009001B0AB
:107F300080BD80B56F4681B0009001B080BD80B536
:107F40006F4684B0009107F8050C039118B9FFE75C
:107F50000020019004E00098FFF74FFB0190FFE73D
:107F6000019804B080BD80B56F468CB007F8251C21
:107F7000049002F087F904F0DDFB039003A8019060
:107F80000690A7F1250007900021059105A9FFF7AC
:107F900064F9019805990890099103980A900B914A
:107FA00041F2BC12C0F2030202F08FF80CB080BDA7
:107FB00080B56F4682B0019002F064F904F075FC60
:107FC00002B080BD80B56F4682B0019002F05AF9D0
:107FD00004F0F2FB02B080BD80B56F4682B0019024
:107FE000FFF7E6FF02B080BD80B56F4682B001901A
:107FF000FFF7E8FF02B080BD80B56F4684B0019006
:1080000007F8051C039000F013F8C0B2002818BF51
:10801000012004B080BD80B56F4684B0019007F8A0
:10802000061C07F8052C039000F068F804B080BD2A
:1080300080B56F4694B00190109007F8091C41F28A
:108040000020C0F20300129041F23020C0F2030081
:108050001390C8B202900299DFE801F00409232AC4
:108060004400FEDE0198007807F8410C41E041F23F
:108070003020C0F2030004900120059041F2C000BE
:10808000C0F203000168406808910990042006903E
:108090000020079041F23821C0F2030104A807F044
:1080A00025F801980078BFF35F8F07F8410C20E0B6
:1080B00041F20020C0F203000A9001200B9041F22F
:1080C000C000C0F20300016840680E910F900420C8
:1080D0000C9000200D9041F24821C0F203010AA843
:1080E00007F004F801980078BFF35F8F07F8410CA0
:1080F000FFE717F8410C14B080BDD4D480B56F46AB
:1081000094B001900B460293109007F80A1C07F8F0
:10811000092C41F28C20C0F20300129041F2C020E1
:10812000C0F203001390D0B203900399DFE801F08E
:1081300004080E284200FEDE02980199087041E012
:1081400002980199BFF35F8F08703BE041F2C020B5
:10815000C0F2030004900120059041F2C000C0F27B
:1081600003000168406808910990042006900020EF
:10817000079041F2C821C0F2030104A806F0B6FF3F
:1081800041F28C20C0F203000A9001200B9041F2D2
:10819000C000C0F20300016840680E910F900420F7
:1081A0000C9000200D9041F2D821C0F203010AA8E2
:1081B00006F09CFF02980199BFF35F8F0870BFF330
:1081C0005F8FFFE714B080BD80B56F468AB007F8B7
:1081D000050C41F21431C0F203010991C0B20190C3
:1081E0000199DFE801F0041E1F202100FEDE41F2AC
:1081F0001430C0F2030002900120039041F2C0004D
:10820000C0F20300016840680691079004200490C2
:108210000020059041F21C31C0F2030102A806F0D3
:1082200065FF02E001E000E0FFE70AB080BD80B535
:108230006F4600DEFEDE80B56F4682B072B6042067
:1082400007F8010C17F8010CFFF7BEFF02B080BD64
:1082500080B56F4681B0009001B080BD80B56F469B
:1082600084B001900390FFF7E6FF002007F8060CAA
:1082700017F8061C47F69040C2F20000FFF7BCFE5C
:1082800080B9FFE7002007F8050C17F8052C47F622
:108290009040C2F200000121FFF7BDFE0198FFF7F8
:1082A000D7FFFFE700F000F880B56F4682B041F2DB
:1082B0002C31C0F203014EF62450CEF200000090A3
:1082C00006F05FFC014600980191019921F480219C
:1082D0000191019941F23C32C0F2030206F0F6FC32
:1082E000FFF7A5FF80B56F4692B00193029203910C
:1082F0000C900D910E9241F24C32C0F203020F929B
:10830000D622109281421CD2FFE7019A41F24C30F2
:10831000C0F203000A90D6200B900AA81190049096
:108320000120059041F2C000C0F2030001684068DE
:1083300008910990042006900021079104A806F0F6
:10834000E0FE039802998842DFD8FFE712B080BDB3
:1083500080B56F468AB00093019202910390049019
:108360000591069207900892904201D8FFE704E039
:10837000009A0199039807F0B2F9019A039841F223
:108380002443C0F203031146FFF7ACFFFFE7029856
:10839000039A0199891A099110440AB080BD80B5E9
:1083A0006F4685B00090019101A803906846049043
:1083B00001980099884203D3FFE70098029002E0F9
:1083C0000198029002E0029805B080BDFBE780B5FD
:1083D0006F4682B00091014600980190086001202C
:1083E000486041F2C000C0F20300026840680A61C0
:1083F0004861042088600020C86002B080BD80B55C
:108400006F46B0B00393049205918446CDF818C02E
:10841000F8680790B8680890CDF890C0259126922A
:10842000279341F24441C0F20301289140F21B110D
:10843000299141F28C51C0F203012A912B9110BB7A
:10844000FFE70398012107F8991C0A9017F8991C77
:1084500007F8911C4FF0553101EA5001401A4FF0D6
:10846000333101EA900120F0CC30084400EB1010C9
:1084700020F0F0304FF001314843000E1D901D9860
:10848000012825D030E003980499B1FA81F1490917
:1084900007F8991C0A9017F8991C07F8911C4FF0DF
:1084A000553101EA5001401A4FF0333101EA900191
:1084B00020F0CC30084400EB101020F0F0304FF0EA
:1084C00001314843000E1D901D98012829D00BE072
:1084D000039806991B9101381C901B981C99084021
:1084E0001A901A98D0B11AE041F28C50C0F20300F1
:1084F00014900120159041F2C000C0F20300016801
:10850000406818911990042016900020179041F2AD
:108510009451C0F2030114A806F0E8FD00E016E053
:1085200016E0039806991B9101381C901B981C9922
:1085300008401A901A980028F1D1FFE717F8910C1B
:10854000C0070028ECD1FFE71B9808B9FFE773E0EC
:10855000039805992C9117F8991C0A46029207F87E
:10856000091C4FF0553101EA5001401A4FF03331E8
:1085700001EA900120F0CC30084400EB101020F00C
:10858000F0304FF001314843000E2E902E98012814
:1085900007D1FFE70598014601911C9908421AD0BE
:1085A0001DE041F28C50C0F203001E9001201F908C
:1085B00041F2C000C0F2030001684068229123909C
:1085C000042020900020219041F29451C0F2030138
:1085D0001EA806F08BFD0298C00720B900E003E05A
:1085E000019810B900E000E026E0089B049A059984
:1085F000069800F007FAE8B9FFE7079A41F244400D
:10860000C0F20300129040F21B10139012A82F909A
:108610000C9001200D9041F2C000C0F203000168EF
:1086200040681091119004200E9000210F910CA829
:1086300006F067FD30B080BDDFE780B56F4684B0DF
:10864000019007F8051C039000F02AF8C0B200283A
:1086500018BF012004B080BD80B56F4684B0019082
:1086600007F8061C07F8052C039000F0E1F804B0A9
:1086700080BD80B56F4684B0019007F8051C03905B
:1086800000F074F804B080BD80B56F4684B00090EF
:10869000019107F8052C039000F030F904B080BD7B
:1086A00080B56F4694B00190109007F8091C41F214
:1086B000D850C0F20300129041F20860C0F20300EB
:1086C0001390C8B202900299DFE801F00409232A4E
:1086D0004400FEDE0198007807F8410C41E041F2C9
:1086E0000860C0F2030004900120059041F2C00030
:1086F000C0F20300016840680891099004200690C8
:108700000020079041F21061C0F2030104A806F0B6
:10871000EDFC01980078BFF35F8F07F8410C20E073
:1087200041F2D850C0F203000A9001200B9041F2B0
:10873000C000C0F20300016840680E910F90042051
:108740000C9000200D9041F22061C0F203010AA8B4
:1087500006F0CCFC01980078BFF35F8F07F8410C5E
:10876000FFE717F8410C14B080BDD4D480B56F4634
:1087700094B00190109007F8091C41F2D850C0F253
:108780000300129041F20860C0F203001390C8B2D7
:1087900002900299DFE801F0040822284200FEDE80
:1087A0000198006803903FE041F20860C0F20300C6
:1087B00004900120059041F2C000C0F2030001685E
:1087C000406808910990042006900020079041F22B
:1087D0001061C0F2030104A806F088FC019800684B
:1087E000BFF35F8F03901FE041F2D850C0F2030047
:1087F0000A9001200B9041F2C000C0F20300016812
:1088000040680E910F9004200C9000200D9041F2D2
:108810002061C0F203010AA806F068FC0198006814
:10882000BFF35F8F0390FFE7039814B080BDD4D4EB
:1088300080B56F4694B001900B460293109007F8F4
:108840000A1C07F8092C41F26460C0F20300129080
:1088500041F29860C0F203001390D0B203900399E4
:10886000DFE801F004080E284200FEDE02980199BC
:10887000087041E002980199BFF35F8F08703BE0F8
:1088800041F29860C0F2030004900120059041F28B
:10889000C000C0F2030001684068089109900420FC
:1088A00006900020079041F2A061C0F2030104A8E5
:1088B00006F01CFC41F26460C0F203000A90012043
:1088C0000B9041F2C000C0F20300016840680E91B5
:1088D0000F9004200C9000200D9041F2B061C0F286
:1088E00003010AA806F002FC02980199BFF35F8F0A
:1088F0000870BFF35F8FFFE714B080BD80B56F468F
:1089000094B0009101900F90109107F8092C41F25A
:108910006460C0F20300129041F29860C0F203005C
:108920001390D0B202900299DFE801F004080E28FB
:108930004200FEDE00980199086041E0009801992C
:10894000BFF35F8F08603BE041F29860C0F2030024
:1089500003900120049041F2C000C0F203000168BE
:10896000406807910890042005900020069041F28D
:10897000A061C0F2030103A806F0B8FB41F26460F5
:10898000C0F20300099001200A9041F2C000C0F239
:108990000300016840680D910E9004200B900020A8
:1089A0000C9041F2B061C0F2030109A806F09EFBF1
:1089B00000980199BFF35F8F0860BFF35F8FFFE7F7
:1089C00014B080BD80B56F4682B000900191B1FABD
:1089D00081F0400902B080BD80B56F468AB0009139
:1089E0000190039004910591069007910890FFE78C
:1089F00001980099099008440290FFE701980299B4
:108A00000AB080BD80B56F4690B00790089109927A
:108A10000A938446CDF804C00B90084602900C914E
:108A2000A2FB0301002918BF01210246039207F8A7
:108A3000091C0E900CD1FFE701980299039A059248
:108A400001220492059A00920F9288420CD306E00C
:108A500041F2C060C0F203003D2106F079FB0198AD
:108A60000299401A069004E002980199401A069073
:108A7000FFE70099069888424FF0000028BF0120C8
:108A800010B080BD80B56F4684B000900290007831
:108A9000C00748B9FFE7009901200870A7F1090055
:108AA000002100F003F8FFE704B080BD80B56F46F9
:108AB00084B0029007F8011C07F8091CA7F109010E
:108AC000012200F075FB04B080BD80B56F4690B008
:108AD00005920A46059906920246069807920C925C
:108AE0000D900E91FFF778FF09900A91FFE709A812
:108AF00000F025F90B900B9858B1FFE707980B99F8
:108B000009780A46049207F8011C4078072806D322
:108B100001E010B080BD0498000628B10BE0049875
:108B2000000600283ED044E007984078C11F03911A
:108B300007281AD30DE00499A7F11D0000F077F87B
:108B400007984078411CC8B20A460292884219D15F
:108B500011E0039860F07F01A7F11D0000F067F8B5
:108B60000799002048708870C1E741F20070C0F298
:108B7000030007F037F8079802994170407886287B
:108B800006D0B4E741F21070C0F2030007F017F806
:108B9000A7F11D00FF2100F04AF807990020487056
:108BA0008870A4E70798407801460191082806D309
:108BB00010E00499A7F11D0000F039F810E00799C2
:108BC000019800F00702012000FA02F288781043B1
:108BD000887005E041F22070C0F2030007F028F829
:108BE00007984078411CC8B20A460092884207D1D3
:108BF000FFE70798009941704078072806D076E78C
:108C000041F23070C0F2030006F0D9FF0798807877
:108C100000283FF46CAFFFE707988178A7F11D00AB
:108C200000F005F807990020487088705FE780B56C
:108C30006F4684B0029007F8011C07F8091CA7F1E1
:108C40000901012200F0D0FA04B080BD80B56F4662
:108C500088B004900690407860B9FFE7A7F109005A
:108C60000021039100F042F804990398487088703D
:108C700008B080BD0498407838B9FFE70498407880
:108C8000C11F0291072816D30DE0049840780628EA
:108C9000F4D8FFE70499487889780091014601915A
:108CA00008280ED31CE0029860F07F01A7F10900AC
:108CB00000F01CF8D2E741F24070C0F2030006F069
:108CC00091FF0098019901F007024FF0FF319140A8
:108CD000084300F07F01A7F1090000F007F8BDE7A5
:108CE00041F25070C0F2030006F0A2FF80B56F465B
:108CF00084B0029007F8011C07F8091CA7F10901CC
:108D0000012200F0B9FA04B080BD80B56F4682B090
:108D10000090FFF7B7FE02B080BD80B56F4684B00B
:108D2000009001910292FFF7D0FE04B080BD80B5A3
:108D30006F4682B00090FFF789FF02B080BD80B51A
:108D40006F468EB00090069001210791089101684E
:108D50000391406801900990FFE7019803A90A91E7
:108D6000049004A80B9003980499884207D0FFE769
:108D7000009903980C9003980130086002E00020ED
:108D8000029009E00398059005A80D9003980290C1
:108D9000FFE702980EB080BDFBE780B56F468AB052
:108DA000019002910392059000F057F930B9FFE766
:108DB00048F69D60C0F20200049005E048F60D60A0
:108DC000C0F202000490FFE702980399FFF7FAFD52
:108DD00058B9FFE70198049B0299039A9847014606
:108DE000009106900028EFD001E00AB080BD009805
:108DF0000299039A07910892099041F26073C0F2B8
:108E00000303FFF7A5FA02900391DDE780B56F46F3
:108E100090B005920A460599069202460698079276
:108E20000A920B900C91FFF7CDFD08BBFFE7079866
:108E30001030002107F81A1C17F81A1CFFF719FC4C
:108E40000146079802910D910C30022107F8191C78
:108E500017F8191CFFF70DFC014602980A46039209
:108E60000E9100F00EF9014604910F9018B105E043
:108E7000002008900FE0002008900CE0039B059A6A
:108E800006990798DDF810C0EE46CEF800C000F055
:108E900024F80890FFE7089810B080BD80B56F46B1
:108EA0008AB00392029104900690079108920C30C8
:108EB000022107F8111C17F8111CFFF7DAFB0299C1
:108EC000039A034604980993EE464FF4806CCEF85B
:108ED00000C000F002F80AB080BD80B56F46ACB0AB
:108EE0000B9309920A46089284460998CDF828C047
:108EF000B968CDF83CC0109211901293FFF74FFA69
:108F00000B9B01460C911390184498420D9005D389
:108F1000FFE70D98B0F5806F29D805E041F2707039
:108F2000C0F2030006F04BFE0C9A08980B9B0A99BE
:108F3000DDF824C02A90CDF8ACC049682291239373
:108F4000194407911D901E911F9241F2344CC0F2BA
:108F5000030C6B46C3F804C01A6001231A46FFF7DE
:108F60004EFA079808990C9A07F0F4F807E00B9866
:108F7000C0F580610691B0F5806F4AD812E00C9A76
:108F80000B990A980C301591169211446FF39F219A
:108F9000012207F8752C17F8752CFFF775FB0C9854
:108FA0002CB080BD069A0A990898DDF824C00B9B66
:108FB00014922890CDF8A4C04968209121931944B7
:108FC00002911A901B911C9241F2344CC0F2030C96
:108FD0006B46C3F804C01A6001231A46FFF70FFA64
:108FE00002980899069A07F0B5F8DDF824C0089BA6
:108FF0000A9A06990C982693CDF89CC02493259143
:109000000B44039352680492421A059288421ED37D
:1090100005E041F28070C0F2030006F0E3FD059A1E
:109020000398049917901891199241F2344CC0F2A8
:10903000030C6B46C3F804C01A6001231A46FFF7FD
:10904000DEF904980399059A07F084F897E741F24E
:109050009070C0F2030006F0C5FD80B56F4682B087
:1090600001901430002107F8051C17F8051CFFF7C4
:1090700000FB00F003000238B0FA80F0400902B0B3
:1090800080BD80B56F468AB0059106900890099121
:10909000884203D8FFE7069838B10EE00698059994
:1090A000421A0492884235D32FE00598C0F58061BA
:1090B0000391B0F5806F0DD807E00598C0F5806189
:1090C0000291B0F5806F1AD816E00398411E019105
:1090D00048B105E041F2A070C0F2030006F082FD45
:1090E0000198079005E041F2A070C0F2030006F07D
:1090F00079FD07980AB080BD02980790F9E741F220
:10910000B070C0F2030006F06DFD0498411E00919E
:1091100048B105E041F2C070C0F2030006F062FD04
:1091200000980790E5E741F2C070C0F2030006F036
:1091300059FD80B56F4692B001900B9005F0E5FEA9
:10914000014601980A46029207F8151C002107F80B
:10915000391C17F8391CFFF770FAD0B9FFE70198EE
:10916000002107F81D1C17F81D2C0121FFF774FAC8
:1091700002990198421C11920E9201F0010107F828
:10918000091C4170023010900D90FFF7BEFD12B027
:1091900080BD41F2F071C0F2030104A80090FFF716
:1091A00016F9009841F2F871C0F2030105F09EFF34
:1091B00080B56F4684B001900291039247F6084053
:1091C000C2F200001830FFF7E8FD04B080BD80B5A2
:1091D0006F4686B001900291039202300590049090
:1091E000FFF79BFD06B080BD80B56F4684B001904F
:1091F0000291039247F60840C2F200001830FFF7D0
:10920000CCFD04B080BD80B56F4692B003900C9049
:10921000002107F8351C17F8351CFFF70EFA78B94E
:10922000FFE741F62401C0F2030105A80290FFF711
:10923000CEF8029841F62C01C0F2030105F056FF6A
:109240000398023010900D90FFF771FD0398411CB8
:1092500011910F914178019107F80E1C002107F838
:10926000191C17F8192CFFF7F7F9019807F80D0CDE
:1092700005F050FE12B080BD80B56F4684B00190FD
:109280000291039247F60840C2F200001830FFF73F
:1092900084FD04B080BD80B56F4647F69140C2F2B0
:1092A0000000FFF746FF80BD80B56F4682B00A46DA
:1092B00001460091019247F69140C2F20000FFF78B
:1092C00086FF02B080BD80B56F4647F69140C2F27E
:1092D0000000FFF798FF80BD80B56F46FFF7DBFF0A
:1092E00080BD80B56F46FFF7EEFF80BD80B56F464D
:1092F00082B000900191FFF7D7FF02B080BD80B52A
:109300006F4600F05EFC80BD80B56F4600F0F1FA5C
:1093100080BD80B56F4600F0BEFB80BD80B56F4656
:1093200000F05AFB80BD80B56F4600F04BFB80BD5E
:1093300080B56F4600F095FC80BD80B56F4600F0AB
:10934000C8FB80BD80B56F4600F063FC80BD80B572
:109350006F4600F019FB80BD80B56F4600F0DDFC64
:1093600080BD80B56F4600F09AFC80BD80B56F4629
:1093700000F0AAFB80BD80B56F4600F0B5FA80BD55
:1093800080B56F4600F059FC80BD80B56F4600F097
:1093900063FC80BD80B56F4600F0F1FC80BD80B5F8
:1093A0006F4600F0A5FB80BD80B56F4600F074FAF3
:1093B00080BD80B56F4600F059FC80BD80B56F461A
:1093C00000F01EFB80BD80B56F4600F069FB80BDDC
:1093D00080B56F4600F06AFA80BD80B56F4600F038
:1093E000CEFA80BD80B56F4600F014FB80BD80B51D
:1093F0006F4600F06AFA80BD80B56F4600F09CFCB5
:1094000080BD80B56F4600F023FB80BD80B56F4600
:1094100000F0D3FA80BD80B56F4600F09BFB80BDA5
:1094200080B56F4600F092FA80BD80B56F4600F0BF
:1094300074FA80BD80B56F4600F019FB80BD80B521
:109440006F4600F092FA80BD80B56F4600F04BFB8E
:1094500080BD80B56F4600F08DFC80BD80B56F4645
:1094600000F083FC80BD80B56F4600F06AFC80BDD3
:1094700080B56F4600F0F6FA80BD80B56F4600F00B
:1094800060FA80BD80B56F4600F0C9FA80BD80B536
:109490006F4600F051FA80BD80B56F4600F02EFA9D
:1094A00080BD80B56F4600F04BFB80BD80B56F4638
:1094B00000F0A1FA80BD80B56F4600F091FB80BD41
:1094C00080B56F4600F096FB80BD80B56F4600F01A
:1094D000BAFA80BD80B56F4600F042FA80BD80B513
:1094E0006F4600F019FB80BD80B56F4600F005FBAC
:1094F00080BD80B56F4600F005FB80BD80B56F462E
:1095000000F092FA80BD80B56F4600F041FB80BD4F
:1095100080B56F4600F096FB80BD80B56F4600F0C9
:1095200006FC80BD80B56F4600F0C4FA80BD80B5F2
:109530006F4600F0C0F980BD80B56F4600F02DFB8E
:1095400080BD80B56F4600F0DEFB80BD80B56F4604
:1095500000F04CFA80BD80B56F4600F0BEFB80BDC8
:1095600080B56F4600F01EFB80BD80B56F4600F0F1
:1095700055FB80BD80B56F4600F0C9FA80BD80B54F
:109580006F4600F0D4F980BD80B56F4600F0DDFA7B
:1095900080BD80B56F4600F084F980BD80B56F4610
:1095A00000F055FB80BD80B56F4600F0ACF980BD82
:1095B00080B56F4600F06EFB80BD80B56F4600F051
:1095C0003DFA80BD80B56F4600F07DFB80BD80B563
:1095D0006F4600F014FB80BD80B56F4600F098FB2D
:1095E00080BD80B56F4600F05FFB80BD80B56F46E3
:1095F00000F074FA80BD80B56F4600F041FB80BD7D
:1096000080B56F4600F015FA80BD80B56F4600F05A
:109610000FFB80BD80B56F4600F0B6FB80BD80B506
:109620006F4600F01AFA80BD80B56F4600F0BBF9B6
:1096300080BD80B56F4600F09CFA80BD80B56F4656
:1096400000F048F980BD80B56F4600F061F980BD3B
:1096500080B56F4600F052FB80BD80B56F4600F0CC
:109660003EF980BD80B56F4600F00FFB80BD80B530
:109670006F4600F006FA80BD80B56F4600F0ABFA89
:1096800080BD80B56F4600F0C0F980BD80B56F46E3
:1096900000F061F980BD80B56F4600F043F980BDF0
:1096A00080B56F4600F0E7FA80BD80B56F4600F0E8
:1096B0000FFB80BD80B56F4600F07EFA80BD80B59F
:1096C0006F4600F0B0FA80BD80B56F4600F0F6FA44
:1096D00080BD80B56F4600F047FA80BD80B56F460B
:1096E00000F075F980BD80B56F4600F01BFB80BDB2
:1096F00080B56F4600F05CF980BD80B56F4600F024
:1097000039F980BD80B56F4600F07EFA80BD80B526
:109710006F4600F020FB80BD80B56F4600F061F918
:1097200080BD80B56F4600F0B1F980BD80B56F4651
:1097300000F0A2F980BD80B56F4600F0F7F980BD5A
:1097400080B56F4600F042FA80BD80B56F4600F0EC
:10975000C9FA80BD80B56F4600F0EDF980BD80B5D7
:109760006F4600F00BFA80BD80B56F4600F01FFA1F
:1097700080BD80B56F4600F0D4F980BD80B56F46DE
:1097800000F0EDF980BD80B56F4600F002F980BDB4
:1097900080B56F4600F089F980BD80B56F4600F056
:1097A000DFFA80BD80B56F4600F071F880BD80B5EE
:1097B0006F4600F0F3F880BD80B56F4600F07FF98A
:1097C00080BD80B56F4600F074FA80BD80B56F46ED
:1097D00000F0D9F980BD80B56F4600F071F880BD0A
:1097E00080B56F4600F001FA80BD80B56F4600F08D
:1097F000ADFA80BD80B56F4682B005F086FB07F8F4
:10980000010C07F8030C01F066FBF81E03F01FFFC4
:1098100002B080BD80B56F4684B00090029005F024
:1098200074FB0146009807F8011C07F8091C02F0B8
:1098300072FBA7F1090003F00AFF04B080BD80B5F8
:109840006F4682B0009005F060FB0146009807F873
:10985000011C07F8021C02F060FEB81E03F0F7FEC0
:1098600002B080BD80B56F4684B00090029005F0D4
:109870004CFB0146009807F8011C07F8091C02F090
:109880005BFBA7F1090003F0E2FE04B080BD80B5E8
:109890006F4681B001B080BD80B56F4681B001B028
:1098A00080BD80B56F4681B001B080BD80B56F4688
:1098B00081B001B080BD80B56F4681B001B080BD80
:1098C00080B56F4681B001B080BD80B56F4681B074
:1098D00001B080BD80B56F4681B001B080BD80B55C
:1098E0006F4681B001B080BD80B56F4681B001B0D8
:1098F00080BD80B56F4681B001B080BD80B56F4638
:1099000081B001B080BD80B56F4681B001B080BD2F
:1099100080B56F4681B001B080BD80B56F4681B023
:1099200001B080BD80B56F4681B001B080BD80B50B
:109930006F4681B001B080BD80B56F4681B001B087
:1099400080BD80B56F4681B001B080BD80B56F46E7
:1099500081B001B080BD80B56F4681B001B080BDDF
:1099600080B56F4681B001B080BD80B56F4681B0D3
:1099700001B080BD80B56F4681B001B080BD80B5BB
:109980006F4681B001B080BD80B56F4681B001B037
:1099900080BD80B56F4681B001B080BD80B56F4697
:1099A00081B001B080BD80B56F4681B001B080BD8F
:1099B00080B56F4681B001B080BD80B56F4681B083
:1099C00001B080BD80B56F4681B001B080BD80B56B
:1099D0006F4681B001B080BD80B56F4681B001B0E7
:1099E00080BD80B56F4681B001B080BD80B56F4647
:1099F00081B001B080BD80B56F4681B001B080BD3F
:109A000080B56F4681B001B080BD80B56F4681B032
:109A100001B080BD80B56F4681B001B080BD80B51A
:109A20006F4681B001B080BD80B56F4681B001B096
:109A300080BD80B56F4681B001B080BD80B56F46F6
:109A400081B001B080BD80B56F4681B001B080BDEE
:109A500080B56F4681B001B080BD80B56F4681B0E2
:109A600001B080BD80B56F4681B001B080BD80B5CA
:109A70006F4681B001B080BD80B56F4681B001B046
:109A800080BD80B56F4681B001B080BD80B56F46A6
:109A900081B001B080BD80B56F4681B001B080BD9E
:109AA00080B56F4681B001B080BD80B56F4681B092
:109AB00001B080BD80B56F4681B001B080BD80B57A
:109AC0006F4681B001B080BD80B56F4681B001B0F6
:109AD00080BD80B56F4681B001B080BD80B56F4656
:109AE00081B001B080BD80B56F4681B001B080BD4E
:109AF00080B56F4681B001B080BD80B56F4681B042
:109B000001B080BD80B56F4681B001B080BD80B529
:109B10006F4681B001B080BD80B56F4681B001B0A5
:109B200080BD80B56F4681B001B080BD80B56F4605
:109B300081B001B080BD80B56F4681B001B080BDFD
:109B400080B56F4681B001B080BD80B56F4681B0F1
:109B500001B080BD80B56F4681B001B080BD80B5D9
:109B60006F4681B001B080BD80B56F4681B001B055
:109B700080BD80B56F4681B001B080BD80B56F46B5
:109B800081B001B080BD80B56F4681B001B080BDAD
:109B900080B56F4681B001B080BD80B56F4681B0A1
:109BA00001B080BD80B56F4681B001B080BD80B589
:109BB0006F4681B001B080BD80B56F4681B001B005
:109BC00080BD80B56F4681B001B080BD80B56F4665
:109BD00081B001B080BD80B56F4681B001B080BD5D
:109BE00080B56F4681B001B080BD80B56F4681B051
:109BF00001B080BD80B56F4681B001B080BD80B539
:109C00006F4681B001B080BD80B56F4681B001B0B4
:109C100080BD80B56F4681B001B080BD80B56F4614
:109C200081B001B080BD80B56F4681B001B080BD0C
:109C300080B56F4681B001B080BD80B56F4681B000
:109C400001B080BD80B56F4681B001B080BD80B5E8
:109C50006F4681B001B080BD80B56F4681B001B064
:109C600080BD80B56F4681B001B080BD80B56F46C4
:109C700081B001B080BD80B56F4681B001B080BDBC
:109C800080B56F4681B001B080BD80B56F4681B0B0
:109C900001B080BD80B56F4681B001B080BD80B598
:109CA0006F4681B001B080BD80B56F4681B001B014
:109CB00080BD80B56F4681B001B080BD80B56F4674
:109CC00081B001B080BD80B56F4681B001B080BD6C
:109CD00080B56F4681B001B080BD80B56F4681B060
:109CE00001B080BD80B56F4681B001B080BD80B548
:109CF0006F4681B007F8010C01B080BD80B56F469A
:109D000081B001B080BD80B56F4681B001B080BD2B
:109D100080B56F4681B001B080BD80B56F4681B01F
:109D200001B080BD80B56F4681B001B080BD80B507
:109D30006F4681B001B080BD80B56F4681B001B083
:109D400080BD80B56F4681B001B080BD80B56F46E3
:109D500081B001B080BD80B56F4681B001B080BDDB
:109D600080B56F4681B001B080BD80B56F4681B0CF
:109D700001B080BD80B56F4681B001B080BD80B5B7
:109D80006F4681B001B080BD80B56F4681B001B033
:109D900080BD80B56F4684B0009101900290FFE7CE
:109DA000009B01980421002200F043F8FFE701988E
:109DB00000680390039804B080BD80B56F4684B0FE
:109DC000009101900290FFE7009B0198042100227E
:109DD00000F02FF8FFE7019800680390039804B0A3
:109DE00080BD80B56F4684B0009101900290FFE77E
:109DF000009B01980421002200F01BF8FFE7019866
:109E000000680390039804B080BD80B56F4684B0AD
:109E1000009101900290FFE7009B0198042100222D
:109E200000F007F8FFE7019800680390039804B07A
:109E300080BD80B56F469CB0029303910490134699
:109E400005931490159107F8152C41F63C00C0F2CB
:109E500003001790E320189041F64C10C0F2030065
:109E600019904FF0553000EA5100081A4FF0333185
:109E700001EA900120F0CC30084400EB101020F0F3
:109E8000F0304FF001314843000E1A901A98012823
:109E900008D1FFE70498039902460192013908426C
:109EA0001AD01DE041F64C10C0F203000E900120C4
:109EB0000F9041F2C000C0F20300016840681291A7
:109EC0001390042010900020119041F65411C0F21C
:109ED00003010EA805F00AF90598C00720B900E0B3
:109EE00003E00198E8B900E01BE0029A41F63C006B
:109EF000C0F203000C90E3200D900CA81B9006907C
:109F00000120079041F2C000C0F2030001684068E0
:109F10000A910B90042008900021099106A805F0F1
:109F2000F0F81CB080BD80B56F4686B001920291FA
:109F3000039004900591FFE7019B03980421002200
:109F400000F0EDF8FFE702980399086006B080BDC5
:109F500080B56F4686B001920291039004900591FE
:109F6000FFE7019B03980421002200F0D8F8FFE7E7
:109F700002980399086006B080BD80B56F4686B030
:109F800001920291039004900591FFE7019B0398D1
:109F90000421002200F0C3F8FFE70298039908604B
:109FA00006B080BD80B56F4686B0019202910390E5
:109FB00004900591FFE7019B03980421002200F023
:109FC000AEF8FFE702980399086006B080BD80B53F
:109FD0006F4686B001920291039004900591FFE7CD
:109FE000019B03980421002200F099F8FFE70298F2
:109FF0000399086006B080BD80B56F4686B00192B7
:10A000000291039004900591FFE7019B03980421BE
:10A01000002200F084F8FFE702980399086006B078
:10A0200080BD80B56F4686B0019202910390049086
:10A030000591FFE7019B03980421002200F06FF8CF
:10A04000FFE702980399086006B080BD80B56F46AF
:10A0500086B001920291039004900591FFE7019B65
:10A0600003980421002200F05AF8FFE702980399B0
:10A07000086006B080BD80B56F4686B0019202913F
:10A08000039004900591FFE7019B039804210022AF
:10A0900000F045F8FFE702980399086006B080BD1C
:10A0A00080B56F4686B001920291039004900591AD
:10A0B000FFE7019B03980421002200F030F8FFE73E
:10A0C00002980399086006B080BD80B56F4686B0DF
:10A0D00001920291039004900591FFE7019B039880
:10A0E0000421002200F01BF8FFE7029803990860A2
:10A0F00006B080BD80B56F4686B001920291039094
:10A1000004900591FFE7019B03980421002200F0D1
:10A1100006F8FFE702980399086006B080BD80B595
:10A120006F469CB0019302910390134604931390E1
:10A13000149107F8192C41F66412C0F2030216922A
:10A14000E422179241F64C12C0F2030218921990C1
:10A150004FF0553000EA5100081A4FF0333101EA50
:10A16000900120F0CC30084400EB101020F0F030CB
:10A170004FF001314843000E1A901A98012808D177
:10A18000FFE70398029902460092013908421AD06B
:10A190001DE041F64C10C0F203000D9001200E901E
:10A1A00041F2C000C0F203000168406811911290B2
:10A1B00004200F900020109041F65411C0F20301CA
:10A1C0000DA804F093FF0498C00720B900E003E055
:10A1D0000098E8B900E01BE0019A41F66410C0F273
:10A1E00003000B90E4200C900BA81B90059001201D
:10A1F000069041F2C000C0F2030001684068099176
:10A200000A90042007900021089105A804F079FF26
:10A210001CB080BD80B56F4600F001F8FEDE80B551
:10A220006F468CB0024641F64821C0F20301099105
:10A23000C7200A900791089007A80B900190012071
:10A24000029041F2C000C0F203000168406805912D
:10A250000690042003900021049101A804F051FF0E
:10A2600080B56F4681B0009001B080BD80B56F466B
:10A2700082B0019000F4E0600421C0F2FA5108437A
:10A2800002B080BD80B56F4681B0009001B080BD46
:10A2900080B56F4646F20000C4F2000080BD80B574
:10A2A0006F46B0B00146069107F8850C41F2B00048
:10A2B000C0F203000F9000F052FE07900891FFE7F4
:10A2C00007A800F045FD09900998002841D0FFE754
:10A2D00009980068029011901290139040F2245156
:10A2E000149100F224502A900A900AA80190259017
:10A2F00000200390249024A800F05EF8019824998F
:10A30000269027910A982890299141F65C32C0F254
:10A3100003020592FFF79AFE029903981591169190
:10A320004FF4A462179201F5A4612B910B910BA934
:10A3300004911F911E901EA800F054F80498059AED
:10A340001E99209021910B9822902391FFF700FEF7
:10A35000B6E7062007F88D0C17F88D0C00F0B2FD5B
:10A36000069917F88D0C00F083FD17F88D0C00F09E
:10A3700097FDFFF78DFF10902C902D904FF44171B9
:10A380002E9100F541702F900D900DA8009019901E
:10A390000020189018A800F02FF8009818991A902B
:10A3A0001B910D981C901D9141F65C32C0F2030286
:10A3B000FFF737FE30B080BD80B56F4684B00146F0
:10A3C0000191012007F80E0C17F80E2C029107F8E6
:10A3D000022C086820F0010007F8012C10430860E7
:10A3E00004B080BD80B56F4682B0014601914FF048
:10A3F000FF30086002B080BD80B56F4684B0014672
:10A4000001910291012007F8010C086840F000401A
:10A41000086004B080BD80B56F46F0B0FFF738FF2C
:10A42000014611912D900020082102F087FE129024
:10A430001391FFE712A802F079FE14901591149879
:10A44000C007002842D0FFE711991598169016987A
:10A4500010906B916C9008280BD3FFE741F67C308D
:10A46000C0F2030041F69832C0F203021C2104F04E
:10A470005CFE10998800890F0F9039B9FFE70F999A
:10A4800001F5807088420E9006D30BE041F6A830AB
:10A49000C0F2030005F0B9FB41F6B830C0F203008A
:10A4A00005F08DFB11980E996D906E9108446F9098
:10A4B000179017A842901798439041F66C31C0F25C
:10A4C000030103F036F80028B4D01DE11198639021
:10A4D00064904FF4BE71659100F5BE70669019905E
:10A4E00019A844901998459041F66C31C0F20301C7
:10A4F00003F01FF810B9FFE770B080BD11985F90AE
:10A5000060904FF4BE71619100F5BE7062901A9038
:10A510001AA83C9000213D911A983E903F9141F637
:10A520005C32C0F2030204F0D1FB41F2B000C0F291
:10A5300003002E90022100F02AFD0C900A460C998F
:10A540001EA80D9000F00BFA0D991BA800F028FD35
:10A550001B981C991D9A239222912190FFE721A814
:10A5600000F056FC2490259125980028C4D0FFE7E0
:10A5700024980A902F90259800680B903090359081
:10A5800036904FF4A461379100F5A4605D90279058
:10A5900027A840902798419041F66C31C0F2030102
:10A5A000FFF7F7FB26902698FFF75AFE2890FFE763
:10A5B00028A800F01FF929902A912998C00700289F
:10A5C00057D0FFE70B992A9809903190389139902C
:10A5D00020280BD3FFE741F60F30C0F2030041F60D
:10A5E0002C32C0F203021D2104F09FFD099988005E
:10A5F000890F089039B9FFE7089901F5E0608842B2
:10A60000079006D30BE041F63C30C0F2030005F0A2
:10A61000FCFA41F64C30C0F2030005F0D0FA0B987A
:10A6200007993A903B9108445C902B902BA8059099
:10A6300055905A902B985B9041F66C31C0F2030113
:10A64000FFF7CFFB549054A800F0B1F80598549947
:10A65000569057912B985890599141F65C32C0F220
:10A660000302FFF732FD0A994801C90E069049BB63
:10A6700021E00B98329033904FF4A461349100F5AF
:10A68000A4605E902C902CA804904E9026A84F9029
:10A6900000214D914DA900F0A3F804984D995090D8
:10A6A00051912C985290539141F65C32C0F20302C2
:10A6B000FFF74EFC53E70699099808448842039037
:10A6C0000AD305E041F6C830C0F2030005F09DFA58
:10A6D0000398302806D30FE041F6C830C0F20300DB
:10A6E00005F06DFA039947F6D840C2F2000000EB7E
:10A6F000C10003F051F85BE7039841F6D832C0F28D
:10A700000302302104F058FD1198679068904FF4CF
:10A710004271699100F542706A90189018A80190F2
:10A72000479016A848900021469146A900F024F8C9
:10A730000198469949904A9118984B904C9141F64E
:10A740005C32C0F20302FFF76CFC169802900728F7
:10A750000AD8FFE7029947F69840C2F2000000EBE2
:10A76000C10003F019F865E6029841F6E832C0F23C
:10A770000302082104F020FD80B56F4684B00091EB
:10A78000029003910298006801901F2809D8FFE702
:10A790000099019800F01F0201209040086004B069
:10A7A00080BD41F6F830C0F2030005F041FA80B5F3
:10A7B0006F4684B001460191002007F80E0C17F88F
:10A7C0000E2C029107F8022C086820F4403007F89C
:10A7D000012C02F0030240EA0240086004B080BD90
:10A7E00080B56F4682B000900191009800680860C3
:10A7F00002B080BD80B56F4688B0009004900068BC
:10A80000069090FAA0F0B0FA80F0079007980190B7
:10A810000590202803D1FFE70020029003E0019873
:10A82000202804D311E00298039908B080BD019953
:10A83000009B01F01F02012000FA02FC1A6822EAC4
:10A840000C021A6003910290EDE741F60840C0F255
:10A85000030005F0EDF980B56F4600F001F880BD0A
:10A8600080B56F46FFF7D7FD80BD80B56F4688B0D5
:10A87000019100900393029202A806906846079007
:10A88000029A0398009B0199D21A884105D3FFE7E9
:10A89000029803990591049004E0009801990591AC
:10A8A000049000E0FFE70498059908B080BD80B5EA
:10A8B0006F4681B0014600910868496801B080BDCB
:10A8C00080B56F4684B001900393029243600260AA
:10A8D00004B080BD80B56F4688B00191049000F04F
:10A8E0000EF802900391029818B9FFE7019804F05E
:10A8F000C7FB029803990690079108B080BD80B508
:10A900006F468EB0029006904FF0FF31079108918C
:10A910000990006870B9FFE702984FF0FF310160BD
:10A920000590059900910A9104300B900146019120
:10A930000C9002E0002003900DE0019841F61841D0
:10A94000C0F2030100F0D6FAFFE7009801990D91DB
:10A9500003910490FFE7039804990EB080BD80B581
:10A960006F4683B000910146009801900292086002
:10A970004A600020886003B080BDD4D480B56F46A3
:10A980008AB007F8050C41F65441C0F20301099161
:10A99000C0B201900199DFE801F0041E1F202100E0
:10A9A000FEDE41F65440C0F2030002900120039005
:10A9B00041F2C000C0F203000168406806910790B0
:10A9C000042004900020059041F65C41C0F2030190
:10A9D00002A804F08BFB02E001E000E0FFE70AB010
:10A9E00080BD80B56F4684B0019007F8051C0390C8
:10A9F00002F08EFA04B080BD80B56F4684B000903E
:10AA0000019107F8052C039002F0E4FA04B080BD30
:10AA100080B56F468AB00091019003900491059132
:10AA2000069007910890FFE701980099099000EBC4
:10AA300081000290FFE7019802990AB080BD80B5BD
:10AA40006F4682B007F8010C02F0A4FB02B080BD93
:10AA500080B56F4681B000900168086801300860D9
:10AA600001B080BD80B56F4681B00090006801B034
:10AA700080BD80B56F4684B000900191007802904F
:10AA800009780391401AB0FA80F0400904B080BD03
:10AA900080B56F4688B000F0E5F84EF60C50CEF267
:10AAA0000000019002900390049041F66C41C0F2C6
:10AAB000030102F03EFDFFF7D9FB01460198059026
:10AAC0000691079041F67C42C0F2030204F0FEF8C2
:10AAD00000F0C8F8FFE700F0DBF8FCE780B56F4650
:10AAE0008CB00091014600981346019303918DF8B4
:10AAF000100007F81F2C07F8010CC0B227F81E0C35
:10AB00000A9127F8160C0146029100091E2816D852
:10AB1000FFE7019902984EF20042CEF20002104483
:10AB2000059007F8171C079007F80D1C099041F6CF
:10AB30007C42C0F2030204F0B2F80CB080BD02986F
:10AB400041F68C42C0F203024FF4F87104F034FB7A
:10AB500080B56F468CB007F81F0C07F8010CC0B227
:10AB60000146029127F81E0C400927F8120C0146F5
:10AB700003910F2810D8FFE70298039A4EF20011B4
:10AB8000CEF2000101EB8201009100F01F000146AE
:10AB90000191202808D31AE0039841F69C42C0F2A4
:10ABA0000302102104F008FB0098019901F01F0234
:10ABB0000121914005900691089009910A9041F673
:10ABC0007C42C0F2030204F081F80CB080BD41F673
:10ABD000AC40C0F2030005F02BF880B56F468CB096
:10ABE00007F81F0C07F8010CC0B20146029127F8C4
:10ABF0001E0C400927F8120C014603910F2810D8AB
:10AC0000FFE70298039A4EF28021CEF2000101EB99
:10AC10008201009100F01F0001460191202808D315
:10AC20001AE0039841F6BC42C0F20302102104F07E
:10AC3000C3FA0098019901F01F020121914005908B
:10AC40000691089009910A9041F67C42C0F20302F5
:10AC500004F03CF80CB080BD41F6CC40C0F20300DB
:10AC600004F0E6FF80B56F4682B00420009007F83C
:10AC7000020C17F8020CFFF781FE0098BFF34F8F0C
:10AC800007F8010C17F8010CFFF778FE02B080BD41
:10AC900080B56F4600BF80BD80B56F4683B0EFF3CF
:10ACA000108002900298019000F00100012804D069
:10ACB000FFE7002007F8090C03E0012007F8090C62
:10ACC000FFE717F8090C03B080BD80B56F4682B06E
:10ACD00007F8010C40F23971C0F20301781EFFF74A
:10ACE000C8FE02B080BD80B56F4684B00190FFF70A
:10ACF000D3FF029007F8010C00F01DF804F022F9D0
:10AD00000198F91E00F09BF90298FFF7DEFF10B9D9
:10AD1000FFE704B080BD00F001F8FAE780B56F46A8
:10AD200082B0042007F8010C17F8010CFFF726FE8B
:10AD300062B602B080BD80B56F4682B072B60420A4
:10AD400007F8010C17F8010CFFF718FE02B080BDE0
:10AD500080B56F468EB00090069001210791089152
:10AD600001680391406801900990FFE7019803A9E9
:10AD70000A91049004A80B9003980499884207D084
:10AD8000FFE7009903980C9003980430086002E0F4
:10AD90000020029009E00398059005A80D90039803
:10ADA0000290FFE702980EB080BDFBE780B56F46CA
:10ADB00083B00146002007F8090C8DF80400062234
:10ADC0008DF8082007F8070C9DF8082007F8052CD7
:10ADD00007F8060C07F8030C07F8020C07F8010C3B
:10ADE00017F8090C08709DF80400487117F8050C55
:10ADF000C87037F8070CA1F8010017F8030C887128
:10AE000017F8020CC87117F8010C087103B080BD67
:10AE100080B56F468EB004900990FFF799FF0890B7
:10AE2000089880B1FFE7049808990B91079107995A
:10AE300001910C91816802910D918168481C8842B2
:10AE400003900FD306E000200690FFE705980699CF
:10AE50000EB080BD01980299039A049B9A600591F7
:10AE60000690F3E741F6DC40C0F2030004F0A7FED1
:10AE700080B56F4684B0019101460198029107F8B0
:10AE8000031C07F8020C41F6EC41C0F20301FFF786
:10AE9000D6FD0299024603A8FFF720FE04B080BD4C
:10AEA00080B56F4682B0009007F8010C042007F8C7
:10AEB000020C17F8020CFFF761FD0098FFF748FE3F
:10AEC00002B080BD80B56F4682B007F8010CFFF775
:10AED00084FE02B080BD80B56F4682B000F026FDD2
:10AEE00002B080BD80B56F4682B00190FFF7B0FD23
:10AEF00002B080BD80B56F468EB001910A9041F6D8
:10AF0000FC41C0F203010B91D2210C91E0B9FFE7A3
:10AF1000019A41F6FC40C0F203000890D22009904B
:10AF200008A80D9002900120039041F2C000C0F2E9
:10AF300003000168406806910790042004900021F6
:10AF4000059102A804F0DDF80EB080BD80B56F4613
:10AF500082B001900430FFF7C5FF02B080BD80B51C
:10AF60006F468CB0009002900221039104910591EC
:10AF700006900791089009910A90FFE700980B90BE
:10AF800008300190FFE7009801990CB080BD80B5B2
:10AF90006F4682B000900191FFF73AFD02B080BD8C
:10AFA00080B56F460B46014618685A689B688B60EF
:10AFB0004A60086080BD80B56F4682B00090019104
:10AFC0004FF0FF3200F002F802B080BD80B56F464E
:10AFD0008AB00190029103920198099041F6F051D4
:10AFE000C0F2030102F0A5FA014600910890039A0D
:10AFF000104002991140884208D0FFE7009802995A
:10B00000039A11400840884211D103E0012007F85B
:10B01000150C10E001A8059002A8069003A807905F
:10B0200005A8FFF760FE002007F8150C03E00220DA
:10B0300007F8150CFFE717F8150C0AB080BD80B5AE
:10B040006F46BCB002900C914EF20000C4F20100B9
:10B050000D901C901D9040F204501E904EF2045032
:10B06000C4F201003A90049004A8039032900020AA
:10B07000319031A800F0B2F80398319933903491AF
:10B0800004983590369141F6D052C0F20302FEF793
:10B09000F2FFFFE74EF20000C4F201001690179095
:10B0A0004FF4806018904EF20040C4F201003790D7
:10B0B000069006A8299006982A9041F6E051C0F221
:10B0C0000301FEF7A2FE059005A82390059800F065
:10B0D000010024900028DDD0FFE7029A1068516833
:10B0E000926800680968126861EA02010E900F9187
:10B0F00041F60062C0F2030203F0E8FDFFF7B2FD83
:10B10000FFE74EF20000C4F20100139014904FF4D8
:10B11000806015904EF20040C4F201003890089013
:10B1200008A827900898289041F6E051C0F2030142
:10B13000FEF76BFE079007A82190079800F001002A
:10B1400022900028DDD0FFE74EF20000C4F201009B
:10B1500019901A9040F204501B904EF20450C4F221
:10B1600001003B90099009A801902C9000202B90A1
:10B170002BA800F048F801982B992D902E91099852
:10B180002F90309141F6D052C0F20302FEF773FFC8
:10B19000FFE74EF20000C4F20100109011904FF44E
:10B1A000806012904EF20040C4F2010039900B9082
:10B1B0000BA825900B98269041F6E051C0F20301B0
:10B1C000FEF723FE0A900AA81F900A9800F00100DB
:10B1D00020900028DDD0FFE73CB080BD80B56F46F1
:10B1E00084B001460191012007F80E0C17F80E2CCF
:10B1F000029107F8022C086807F8012C62F301009D
:10B20000086004B080BD80B56F4682B0019002B086
:10B2100080BDD4D480B56F46ADF5227D129000F08C
:10B2200080FB129800218DF850100079014613918F
:10B2300030B1FFE71398012816D0FFE72EE0FEDEBD
:10B2400040F20410C1F200002D9041F61061C0F2EE
:10B25000030102F06EF92690010AC0F307208DF871
:10B260009F10452838D819E041F20820C1F20000AB
:10B270000021FFF7A0FE8DF8520040F23971C0F2B4
:10B2800003010DF1520000F074FC01469DF85000DE
:10B29000084300F001008DF85000FFE712211191E2
:10B2A000289141F20020C1F20000FFF784FE1199BD
:10B2B0008DF8530041F20420C1F20000FFF77BFE3D
:10B2C0008DF8540040F23971C0F203010DF15300C2
:10B2D00000F04FFC90BB27E041F20820C1F20000D3
:10B2E0005A211091FFF767FE8DF8510040F2397135
:10B2F000C0F203010DF1510000F03BFC1099024631
:10B300009DF85000104300F001008DF8500040F20D
:10B310005850C4F200002E902F9141F62062C0F2E6
:10B32000030203F0D3FCB9E740F23971C0F2030124
:10B3300015A800F01EFC8DF8550003E001208DF8E3
:10B340005500FFE79DF850009DF85510084300F0A8
:10B3500001008DF8500041F63061C0F203010DF19B
:10B36000530000F006FC48B9FFE741F63061C0F237
:10B37000030115A800F0FDFB68B1FFE740F20300F0
:10B38000C0F2000003F0F5FDADF856000DF15600D7
:10B3900003F01FFEFFE70122299241F20C20C1F2C7
:10B3A00000001146FFF712FE8DF8590040F2397186
:10B3B000C0F203010DF159000F9000F0DAFB0246D4
:10B3C0000F989DF85010114301F001018DF85010B5
:10B3D00041F63061C0F2030100F0CBFB28B9FFE772
:10B3E0001298C07806280DD134E040F20400C0F273
:10B3F000000003F0BEFDADF85A000DF15A0003F055
:10B40000E8FDEDE71298C1788DF8AB102B9141F271
:10B410000430C1F200000722FFF7D8FD8DF85D006F
:10B4200040F23971C0F203010DF15D000E9000F0A1
:10B43000A0FB02460E989DF85010114301F0010147
:10B440008DF8501041F63061C0F2030100F091FB1D
:10B4500028B9FFE79DF85000C007A8B90CE040F2FA
:10B460000500C0F2000003F084FDADF85E000DF1B0
:10B470005E0003F0AEFDEDE712984FF080412C9195
:10B480000078C00710B930E0FFF702FB4FF08040B2
:10B490000C9039903A904FF480703B9040F200103D
:10B4A000C4F200009A90189018A8639000210B91A4
:10B4B000649118986590669141F6D052C0F20302EB
:10B4C0000D9203F003FC0B990C980D9A309031907B
:10B4D00032919790199019A85B9001215C9119986D
:10B4E0005D905E9103F0F2FB08E0129840790A90BB
:10B4F0000A99DFE801F01D406386A9004FF0804003
:10B50000369037904FF48070389040F20010C4F2BB
:10B5100000009B901A901AA869901A986A9041F6B8
:10B52000E051C0F2030102F004F80028E6D0DCE7A5
:10B530004FF080404E904F904FF4A360509040F2F7
:10B540001850C4F200009C901B901BA80990849096
:10B550000020839083A800F040F909988399859092
:10B5600086911B988790889141F6D052C0F20302D1
:10B57000FEF72DFD8BE04FF080404B904C904FF448
:10B58000A3604D9040F21850C4F200009D901C90B2
:10B590001CA808908A900020899089A800F032F9B0
:10B5A000089889998B908C911C988D908E9141F67A
:10B5B000D052C0F20302FEF70AFD68E04FF080406F
:10B5C000489049904FF4A3604A9040F21850C4F25A
:10B5D00000009E901D901DA8079078900020779005
:10B5E00077A800F024F90798779979907A911D98B7
:10B5F0007B907C9141F6D052C0F20302FEF7E7FC4B
:10B6000045E04FF08040459046904FF4A36047904E
:10B6100040F21850C4F200009F901E901EA80690A1
:10B62000909000208F908FA800F016F906988F99BF
:10B63000919092911E989390949141F6D052C0F2BD
:10B640000302FEF7C4FC22E04FF08040429043909A
:10B650004FF4A360449040F21850C4F20000A09050
:10B660001F901FA805907E9000207D907DA800F07F
:10B6700017F905987D997F9080911F98819082910C
:10B6800041F6D052C0F20302FEF7A1FCFFE74FF0F3
:10B69000804003903F9040904FF48270419040F280
:10B6A0000410C4F200009890209020A85F90002120
:10B6B000609120986190629141F6D052C0F20302ED
:10B6C000049203F003FB0398049A3390349008200B
:10B6D00035900820C4F200009690219021A8579040
:10B6E00001215891219859905A9103F0EFFAFFE700
:10B6F0004FF080403C903D904FF482703E9040F27D
:10B700000410C4F200009990229022A86790229819
:10B71000689041F6E051C0F2030101F00AFF0028F1
:10B72000E6D0FFE712984078C00728B9FFE71298E3
:10B730008078C00770BB22E04FF080405490559055
:10B740004FF4B060569040F28050C4F200009590E3
:10B75000239023A802906C9000206B906BA800F0BF
:10B76000C2F802986B996D906E9123986F907091CA
:10B7700041F6D052C0F20302FEF7FFFBD7E7129862
:10B780008079FEF78CFD1298C07900F015FF0DF559
:10B79000227D80BD4FF08040519052904FF4AF60B9
:10B7A000539040F27850C4F20000A190249024A855
:10B7B000019072900020719071A800F0A3F8019898
:10B7C00071997390749124987590769141F6D05246
:10B7D000C0F20302FEF710FCD1E780B56F4684B0DB
:10B7E00001460191002007F80E0C17F80E2C02916B
:10B7F00007F8022C086807F8012C62F301000860C2
:10B8000004B080BD80B56F4684B00146019102202E
:10B8100007F80E0C17F80E2C029107F8022C086896
:10B8200007F8012C62F30100086004B080BD80B508
:10B830006F4684B001460191012007F80E0C17F8FD
:10B840000E2C029107F8022C086807F8012C62F30D
:10B850000100086004B080BD80B56F4688B0014625
:10B860000191012007F81E0C17F81E3C069107F8FD
:10B87000023C0A6807F8013C63F301020A60049184
:10B8800007F8090C086840F40030086002910020B5
:10B8900007F8110C086820F48030086008B080BDFB
:10B8A00080B56F4688B001460191012007F81E0C53
:10B8B00017F81E3C069107F8023C0A6807F8013C9D
:10B8C00063F301020A60049107F8090C0A6842F464
:10B8D00000320A60029107F8110C086840F48030C9
:10B8E000086008B080BD80B56F4684B00146019104
:10B8F0000291012007F8010C086840F0010008607F
:10B9000004B080BD80B56F4684B0014601910291BC
:10B91000012007F8010C086840F00100086004B03D
:10B9200080BD80B56F46FDF765FF80BD80B56F4671
:10B9300082B047F65860C2F200000078C00750B9E4
:10B94000FFE747F65861C2F200010120087000F0DD
:10B950000FF802B080BD40F20600C0F2000003F014
:10B9600008FBADF8040001A803F033FB03F048FB2B
:10B9700080B56F46FDF7C3FCFDF7C6FCFDF7C9FCBB
:10B98000FDF7CCFCFDF7CFFCFDF7D2FCFDF7D5FCB5
:10B99000FDF7D8FCFDF7DBFCFDF7DEFCFDF7E1FC75
:10B9A000FDF7E4FCFDF7E7FCFDF7EAFCFDF7EDFC35
:10B9B000FDF7F0FCFDF7F3FCFDF7F6FCFDF7F9FCF5
:10B9C000FDF7FCFCFDF7FFFCFDF702FDFDF705FDB3
:10B9D000FDF708FDFDF70BFDFDF70EFDFDF711FD71
:10B9E000FDF714FDFDF717FDFDF71AFDFDF71DFD31
:10B9F000FDF720FDFDF723FDFDF726FDFDF729FDF1
:10BA0000FDF72CFDFDF72FFDFDF732FDFDF735FDB0
:10BA1000FDF738FDFDF73BFDFDF73EFDFDF741FD70
:10BA2000FDF744FDFDF747FDFDF74AFDFDF74DFD30
:10BA3000FDF750FDFDF753FDFDF756FDFDF759FDF0
:10BA4000FDF75CFDFDF75FFDFDF762FDFDF765FDB0
:10BA5000FDF768FDFDF76BFDFDF76EFDFDF771FD70
:10BA6000FDF774FDFDF777FDFDF77AFDFDF77DFD30
:10BA7000FDF780FDFDF783FDFDF786FDFDF789FDF0
:10BA8000FDF78CFDFDF78FFDFDF792FDFDF795FDB0
:10BA9000FDF798FDFDF79BFDFDF79EFDFDF7A1FD70
:10BAA000FDF7A4FDFDF7A7FDFDF7AAFDFDF7ADFD30
:10BAB000FDF7B0FDFDF7B3FDFDF7B6FDFDF7B9FDF0
:10BAC000FDF7BCFDFDF7BFFDFDF7C2FDFDF7C5FDB0
:10BAD000FDF7C8FDFDF7CBFDFDF7CEFDFDF7D1FD70
:10BAE000FDF7D4FDFDF7D7FDFDF7DAFDFDF7DDFD30
:10BAF000FDF7E0FDFDF7E3FDFDF7E6FDFDF7E9FDF0
:10BB0000FDF7ECFDFDF7EFFDFDF7F2FDFDF7F5FDAF
:10BB1000FDF7F8FDFDF7FBFDFDF7FEFDFDF701FE6E
:10BB2000FDF704FEFDF707FEFDF70AFEFDF70DFE2B
:10BB3000FDF710FEFDF713FEFDF716FEFDF719FEEB
:10BB4000FDF71CFEFDF71FFEFDF722FEFDF725FEAB
:10BB5000FDF728FEFDF72BFEFDF72EFEFDF731FE6B
:10BB6000FDF734FEFDF737FEFDF73AFEFDF73DFE2B
:10BB700080BD80B56F4684B000900191007802903E
:10BB800009780391401AB0FA80F0400904B080BDF2
:10BB900080B56F4684B000900390029004B080BDE1
:10BBA00080B56F4684B000900390029004B080BDD1
:10BBB00080B56F4641F20000C4F2010080BD80B53F
:10BBC0006F4684B0024602920391500A02F00103CC
:10BBD00081EAC35111EBC25140F100000091019084
:10BBE000002020B9FFE70199009804B080BD41F61C
:10BBF0007070C0F2030003F0E2FF80B56F4682B0C0
:10BC00000146019101F110008842009004D3FFE742
:10BC10000098202806D30CE041F68070C0F20300A3
:10BC200003F0CDFF009800F01F010120884002B012
:10BC300080BD41F69070C0F2030003F0F9FF80B5BB
:10BC40006F46BEB00A460292109007F8B11CFFF78B
:10BC5000AFFF0790014603911290199003211A91AA
:10BC60001B9040F24C511C9100F24C503C900A90B9
:10BC70000AA80490349000200690339033A800F076
:10BC800078F804983399359036910A98379038911E
:10BC900041F65072C0F203020992FEF744F9069889
:10BCA0000799209121914FF44172229201F541713F
:10BCB0003B910B910BA905912E912D902DA800F091
:10BCC00067F80598099A2D992F9030910B9831902B
:10BCD0003291FEF767F90798099A1390149008219A
:10BCE000159108303A900C900CA8279001210891EA
:10BCF00028910C9829902A9102F0E8FF069B07985A
:10BD00000899099A16901790189339900D900DA8DC
:10BD1000239024910D982590269102F0D7FFFFE7FC
:10BD200003981D901E9040F204511F9100F20450A0
:10BD30003D900E900EA82B900E982C9041F66071BD
:10BD4000C0F20301FEF739F80028E9D1FFE70299B4
:10BD50001120019007F8BA0C17F8BA0CFFF788F811
:10BD6000019807F8B90C17F8B90CFFF799F83EB02D
:10BD700080BD80B56F4684B00146019102914FF4B9
:10BD800000020392086862F31700086004B080BDE7
:10BD900080B56F4688B0014601910291012007F8F5
:10BDA000110C0A6842F002020A6004910322059213
:10BDB00007F8050C13200790086840F4002008607D
:10BDC00008B080BD80B56F46BAB001900990FFF70A
:10BDD000EFFE014602910A900F9010904FF482718D
:10BDE000119100F582703890039003A83290039867
:10BDF000339041F66071C0F2030101F09AFB012813
:10BE00001BD1FFE702980C900D904FF482710E91B8
:10BE100000F582703990049004A82A9000212B919B
:10BE200004982C902D9141F65072C0F2030202F05A
:10BE30004DFF019800F078F8FFE702981E9003216B
:10BE40001F9120904FF4A671219100F5A6703490B7
:10BE5000059005A830900598319041F66071C0F2C8
:10BE6000030101F066FB01281DD1FFE702981A903B
:10BE700003211B911C904FF4A6711D9100F5A67033
:10BE80003590069006A826900021279106982890C4
:10BE9000299141F65072C0F2030202F017FF019897
:10BEA00000F042F8FFE7029800210B9116901791DD
:10BEB00018904FF4A071199100F5A070369007907A
:10BEC00007A82E9007982F9041F66071C0F20301E9
:10BED00001F02FFB01281CD1FFE7029812900021EE
:10BEE000139114904FF4A072159200F5A070379042
:10BEF000089008A82290239108982490259141F653
:10BF00005072C0F2030202F0E1FE0198FDF782FCDC
:10BF1000FFE73AB080BD80B56F4682B000900098D0
:10BF200000F09DF802B080BD80B56F4682B00190F0
:10BF3000FDF798FC02B080BD80B56F46A4B00A90B2
:10BF4000FFF736FE0146089110900A981030002144
:10BF500007F8621C17F8621CFEF743FD0146481CF7
:10BF60008842099035D3FFE7099911910A9810305A
:10BF70000022029207F8612C17F8612CFEF73CFDB5
:10BF8000099A0298D105520A0392139212910C90C9
:10BF90000A98FFF7FDFD0D900DA815900D98FEF77E
:10BFA00086FC099B024602988C460399E646CDF82A
:10BFB00010E09646CDF814E0CDF85CC016924FF430
:10BFC000400212EBC35241F100010692079170B991
:10BFD00005E041F6A070C0F2030003F0F0FD049804
:10BFE0000799059A069BD21A884108D305E041F6C5
:10BFF000B070C0F2030003F0E2FD24B080BD0898E9
:10C0000019901A904FF441711B9100F541702390E3
:10C010000E900EA801901D900CA81E9000211C915E
:10C020001CA900F00EF801981C991F9020910E9801
:10C030002190229141F65072C0F20302FDF7B2FF47
:10C04000DBE780B56F4684B00191029003910298BE
:10C050000068FFF7D2FD0199086004B080BD80B58B
:10C060006F46A2B005901390002003900990FFF74F
:10C070009FFD03991590179018904FF442721992F2
:10C0800000F5427021900A900AA804901B9009A81C
:10C090001C901A911AA900F06AF804981A991D9038
:10C0A0001E910A981F90209141F65072C0F203022F
:10C0B000FDF778FF0598FFF76BFD0B900BA8169026
:10C0C0000B984FF0FF331A46FEF7FAFB059808303D
:10C0D000FFF766FD41F6C071C0F20301FEF7FAFBFF
:10C0E0000F9010910FA80790FEF7BCFC0146059831
:10C0F000069100F0D0F9024606980B4601F067F968
:10C100000246079808920A4608990D920C91FEF78C
:10C110001DFFFFE705980C9A0D9B00F036F820BB39
:10C12000FFE705980830FFF73BFD41F6D071C0F2FC
:10C130000301FEF7CFFB1190129111A80190FEF7B9
:10C1400091FC01460598009100F0A5F9024600987F
:10C150000B4601F03CF90246019802920A46029908
:10C160000D920C91FEF7F2FED4E722B080BD80B5AF
:10C170006F4684B001910290039102980068FFF726
:10C180003CFD0199086004B080BD80B56F46DCB00D
:10C1900016931592129019461391114614912290FC
:10C1A0002593249200211991FFF7F2FC159A169B12
:10C1B0001A901AA828901A98FEF782FBFFF7F8FC4D
:10C1C000014617912990FFE7129800F064F9149B3B
:10C1D000024613988C46CDF840C09446CDF844C032
:10C1E0002B912A92D21A71EB00000FD2FFE7109820
:10C1F0001199CA1C50F100014FF0000040F10000FD
:10C200000E920F91002840F08A802BE0179833900F
:10C2100034904FF44271359100F542705A901B9062
:10C220001BA80C904B9019A84C9000210D914A919D
:10C230004AA900F0F5F80C984A994D904E911B9838
:10C240004F90509141F65072C0F20302FDF7AAFEE2
:10C250001A984FF0FF331A46FEF732FB0D988DF80F
:10C260006300C7E00F9B0E9A13991498FEF7FDFA2E
:10C270000A4617991D921C9019980B902F91309097
:10C2800004280BD3FFE741F63160C0F2030041F60A
:10C290005062C0F203021C2102F047FF0B99880094
:10C2A000890F0A9039B9FFE70A9901F5A860884219
:10C2B000099006D30BE041F66060C0F2030003F082
:10C2C000A4FC41F67060C0F2030003F078FC1798FC
:10C2D00009993190329108445B901F901FA80690F5
:10C2E0003D901CA83E9000213C913CA900F0A6F88E
:10C2F00006983C993F9040911F984190429141F699
:10C300005072C0F20302FDF70EFE119B149A1099B1
:10C310001398D21A07928841089010D305E041F68D
:10C32000E070C0F2030003F04AFC089807992C91D2
:10C330002D90B1F5400170F100002BD305E041F6DE
:10C34000F070C0F2030003F04DFC17983690379060
:10C350004FF44271389100F542705990219021A814
:10C360000590529019A853900021519151A900F0C5
:10C3700084F8059851995490559121985690579169
:10C3800041F65072C0F20302FDF70CFE01208DF859
:10C3900063002FE0179839903A904FF441713B9128
:10C3A00000F541705890209020A80190449019A861
:10C3B000459000210291439143A900F050F8019863
:10C3C00043994690479120984890499141F6507280
:10C3D000C0F20302FDF7E6FD129800F05CF8024699
:10C3E0000298023251F1000140F1000003920491E1
:10C3F00060B903E09DF863005CB080BD13980499B8
:10C40000149A039BD21A884106D2DDE642F200005C
:10C41000C0F2030003F0D3FB01208DF86300E9E7CD
:10C4200080B56F4684B00191029003910298006834
:10C43000FFF7E3FB0199086004B080BD80B56F464B
:10C4400084B0009001910098026822F07F40029130
:10C450000390086862F31700086004B080BD80B5DF
:10C460006F4684B001910290039102980068FFF733
:10C47000C4FB0199086004B080BD80B56F4684B0EC
:10C4800001910290039102980068FFF7B6FB0199B1
:10C49000086004B080BD80B56F468CB0039010304A
:10C4A000002107F82A1C17F82A1CFEF79AFA0090B8
:10C4B0000490022007F8290C17F8290CFEF75EFA01
:10C4C000FFF776FB0690079040F20451089100F2C6
:10C4D00004500B90029002A8099002980A9041F62D
:10C4E0006071C0F20301FDF768FC014600980591F8
:10C4F000FFF765FB0CB080BD80B56F4686B0014686
:10C50000B8680193009205910291694603910490E5
:10C5100002A8FDF794F906B080BD80B56F468AB0D9
:10C52000039000680830FFF73BFB42F21001C0F2B5
:10C530000301FEF7CFF90490059104A8FEF792FAE3
:10C5400003994B6889681A685B68EC46CCF8001060
:10C5500000F0DAFE28B9FFE704A8FEF7F7FC0AB0FE
:10C5600080BD04A8FEF77EFA014603980291006898
:10C57000FFF791FF024602980B4600F028FF079153
:10C580000690FFE703980068069A079BFFF7FDFDFA
:10C590000028E1D1FFE704A8FEF764FA01460398FA
:10C5A00001910068FFF777FF024601980B4600F003
:10C5B0000EFF07910690E5E780B56F4682B0014611
:10C5C00007F8011C47F63840C2F20000FFF737FBBE
:10C5D00002B080BD80B56F4687B00090039007F829
:10C5E000091CC8B201900199DFE801F005090D119D
:10C5F00015191D21FEDE002007F8110C1BE001209B
:10C6000007F8110C17E0022007F8110C13E00320C3
:10C6100007F8110C0FE0042007F8110C0BE00520BF
:10C6200007F8110C07E0062007F8110C03E00720BB
:10C6300007F8110CFFE7009917F8112C059107F87E
:10C64000022C086820F4E06007F8012C02F00702D1
:10C6500040EA0220086007B080BD80B56F468AB00E
:10C660000390FDF70FFE00F065F8029002A801901C
:10C6700005900020049004A800F00FF80198049998
:10C680000690079102980890099141F65072C0F205
:10C690000302FDF71AFD0AB080BD80B56F4684B075
:10C6A00001460191012007F80E0C17F80E2C02919B
:10C6B00007F8022C086820F0020007F8012C40EA75
:10C6C0004200086004B080BD80B56F4682B0019022
:10C6D000FFF7C3FF02B080BD80B56F4682B0019006
:10C6E00000F05CF900F01F0002B080BD80B56F461D
:10C6F00084B0039000F052F9C0F34210014601915A
:10C7000058B1FFE70198C0B201280AD0FFE742F212
:10C710002000C0F20300FDF77DFD4FF0A040029025
:10C7200005E040F20030C5F200000290FFE70298F9
:10C7300004B080BD80B56F468CB002900690FFF7C4
:10C74000D5FF0146029804910391FFF7C5FF0499B4
:10C75000C0B2024605920791089020280BD3FFE74C
:10C7600041F68060C0F2030041F6A062C0F203020D
:10C770001D2102F0DAFC05998800890F019039B972
:10C78000FFE7019901F5E0608842009006D30BE0D5
:10C7900041F6B060C0F2030003F037FA41F6C06022
:10C7A000C0F2030003F00BFA0398009909900A9174
:10C7B00008440B900CB080BD80B56F4690B00190DE
:10C7C0000490FFF793FF01460198059106914FF4FD
:10C7D000A162079201F5A1610F91039103A9029152
:10C7E00009910A900021089108A900F00FF8029819
:10C7F00008990B900C9103980D900E9141F6507290
:10C80000C0F20302FDF74CFC10B080BD80B56F464E
:10C810008CB00491069007910698FFF75DFF04998C
:10C82000C0B20246059208910990012107F8051C43
:10C8300020280BD3FFE741F68060C0F2030041F6E9
:10C840001072C0F203021D2102F06FFC05980390E4
:10C85000002028B9FFE703980290002070B905E096
:10C8600041F62070C0F2030003F0CFF9029804995A
:10C870000B900968019120280CD305E041F6307037
:10C88000C0F2030003F09BF941F64070C0F20300D0
:10C8900003F0CEF904990198029A02F01F030122D5
:10C8A0009A40104308600CB080BD80B56F4690B0D0
:10C8B00001900490FFF71AFF014601980591069137
:10C8C00040F20C52079201F20C510F91039103A90F
:10C8D000029109910A900021089108A900F00FF82F
:10C8E000029808990B900C9103980D900E9141F6C7
:10C8F0005072C0F20302FDF7FDFB10B080BD80B5A1
:10C900006F468CB00491069007910698FFF7E4FEFD
:10C910000499C0B20246059208910990012107F8D6
:10C92000051C20280BD3FFE741F68060C0F203000E
:10C9300041F6D062C0F203021D2102F0F6FB059819
:10C940000390002028B9FFE703980290002070B9F7
:10C9500005E041F6E060C0F2030003F056F90298EA
:10C9600004990B900968019120280CD305E041F649
:10C97000F060C0F2030003F022F941F60070C0F24B
:10C98000030003F055F904990198029A02F01F037D
:10C9900001229A40104308600CB080BD80B56F46FC
:10C9A00081B00090007801B080BD80B56F4647F639
:10C9B0003840C2F20000FFF76EFD80BD80B56F46C3
:10C9C00086B001920B4602460198039302920590AD
:10C9D0006946086047F63840C2F20000FFF78CFD58
:10C9E00006B080BD80B56F4684B00020014602913C
:10C9F00050B9FFE702991F2050FA81F1C8B20A46E8
:10CA00000192884209D105E042F23000C0F20300F1
:10CA100003F0FBF8019804B080BD42F23000C0F290
:10CA2000030003F0CCF880B56F4600F001F880BD3C
:10CA300080B56F4647F63840C2F20000FFF7C2F9F2
:10CA400080BD80B56F46FFE7FEE780B56F4680BDCD
:10CA500080B56F4684B0019100900392FFF7AEFF5E
:10CA600004B080BD80B56F46FFF79FFF80BD80B5E5
:10CA70006F4684B00190029100F02EFA07F80D0C79
:10CA800017F80D0C02280CD0FFE717F90D0C07F86A
:10CA9000010C01284FF00000B8BF012007F80E0C70
:10CAA00003E0002007F80E0CFFE717F80E0C04B0A7
:10CAB00080BD80B56F4683B001900291D0F800E050
:10CAC0004368D1F800C04A68BEEB0C0073EB02006B
:10CAD0004FF00000014638BF0121BCEB0E0C9A411B
